{
  "_format": "hh-sol-artifact-1",
  "contractName": "Voting1",
  "sourceName": "contracts/Voting1.sol",
  "abi": [
    {
      "inputs": [
        {
          "internalType": "string[]",
          "name": "_candidateNames",
          "type": "string[]"
        },
        {
          "internalType": "address",
          "name": "_voting2Address",
          "type": "address"
        }
      ],
      "stateMutability": "nonpayable",
      "type": "constructor"
    },
    {
      "anonymous": false,
      "inputs": [
        {
          "indexed": true,
          "internalType": "address",
          "name": "voter",
          "type": "address"
        },
        {
          "indexed": true,
          "internalType": "uint256",
          "name": "candidateIndex",
          "type": "uint256"
        }
      ],
      "name": "CandidateVoted",
      "type": "event"
    },
    {
      "anonymous": false,
      "inputs": [
        {
          "indexed": true,
          "internalType": "address",
          "name": "voter",
          "type": "address"
        },
        {
          "indexed": true,
          "internalType": "uint256",
          "name": "candidateIndex",
          "type": "uint256"
        }
      ],
      "name": "VoteCast",
      "type": "event"
    },
    {
      "inputs": [
        {
          "internalType": "string",
          "name": "_name",
          "type": "string"
        }
      ],
      "name": "addCandidate",
      "outputs": [],
      "stateMutability": "nonpayable",
      "type": "function"
    },
    {
      "inputs": [
        {
          "internalType": "uint256",
          "name": "",
          "type": "uint256"
        }
      ],
      "name": "candidates",
      "outputs": [
        {
          "internalType": "string",
          "name": "name",
          "type": "string"
        },
        {
          "internalType": "uint256",
          "name": "voteCount",
          "type": "uint256"
        }
      ],
      "stateMutability": "view",
      "type": "function"
    },
    {
      "inputs": [],
      "name": "getCandidates",
      "outputs": [
        {
          "components": [
            {
              "internalType": "string",
              "name": "name",
              "type": "string"
            },
            {
              "internalType": "uint256",
              "name": "voteCount",
              "type": "uint256"
            }
          ],
          "internalType": "struct Voting1.Candidate[]",
          "name": "",
          "type": "tuple[]"
        }
      ],
      "stateMutability": "view",
      "type": "function"
    },
    {
      "inputs": [],
      "name": "owner",
      "outputs": [
        {
          "internalType": "address",
          "name": "",
          "type": "address"
        }
      ],
      "stateMutability": "view",
      "type": "function"
    },
    {
      "inputs": [
        {
          "internalType": "uint256",
          "name": "_candidateIndex",
          "type": "uint256"
        }
      ],
      "name": "vote",
      "outputs": [],
      "stateMutability": "nonpayable",
      "type": "function"
    },
    {
      "inputs": [
        {
          "internalType": "address",
          "name": "",
          "type": "address"
        }
      ],
      "name": "voterVote",
      "outputs": [
        {
          "internalType": "uint256",
          "name": "",
          "type": "uint256"
        }
      ],
      "stateMutability": "view",
      "type": "function"
    },
    {
      "inputs": [
        {
          "internalType": "address",
          "name": "",
          "type": "address"
        }
      ],
      "name": "voters",
      "outputs": [
        {
          "internalType": "bool",
          "name": "",
          "type": "bool"
        }
      ],
      "stateMutability": "view",
      "type": "function"
    },
    {
      "inputs": [],
      "name": "voting2Instance",
      "outputs": [
        {
          "internalType": "contract IVoting2",
          "name": "",
          "type": "address"
        }
      ],
      "stateMutability": "view",
      "type": "function"
    }
  ],
  "bytecode": "0x60806040523480156200001157600080fd5b5060405162001b0438038062001b0483398181016040528101906200003791906200045b565b33600360006101000a81548173ffffffffffffffffffffffffffffffffffffffff021916908373ffffffffffffffffffffffffffffffffffffffff16021790555060005b82518110156200011d5760026040518060400160405280858481518110620000a857620000a7620004c1565b5b60200260200101518152602001600081525090806001815401808255809150506001900390600052602060002090600202016000909190919091506000820151816000019081620000fa91906200073b565b506020820151816001015550508080620001149062000851565b9150506200007b565b5080600460006101000a81548173ffffffffffffffffffffffffffffffffffffffff021916908373ffffffffffffffffffffffffffffffffffffffff16021790555050506200089e565b6000604051905090565b600080fd5b600080fd5b600080fd5b6000601f19601f8301169050919050565b7f4e487b7100000000000000000000000000000000000000000000000000000000600052604160045260246000fd5b620001cb8262000180565b810181811067ffffffffffffffff82111715620001ed57620001ec62000191565b5b80604052505050565b60006200020262000167565b9050620002108282620001c0565b919050565b600067ffffffffffffffff82111562000233576200023262000191565b5b602082029050602081019050919050565b600080fd5b600080fd5b600067ffffffffffffffff8211156200026c576200026b62000191565b5b620002778262000180565b9050602081019050919050565b60005b83811015620002a457808201518184015260208101905062000287565b60008484015250505050565b6000620002c7620002c1846200024e565b620001f6565b905082815260208101848484011115620002e657620002e562000249565b5b620002f384828562000284565b509392505050565b600082601f8301126200031357620003126200017b565b5b815162000325848260208601620002b0565b91505092915050565b6000620003456200033f8462000215565b620001f6565b905080838252602082019050602084028301858111156200036b576200036a62000244565b5b835b81811015620003b957805167ffffffffffffffff8111156200039457620003936200017b565b5b808601620003a38982620002fb565b855260208501945050506020810190506200036d565b5050509392505050565b600082601f830112620003db57620003da6200017b565b5b8151620003ed8482602086016200032e565b91505092915050565b600073ffffffffffffffffffffffffffffffffffffffff82169050919050565b60006200042382620003f6565b9050919050565b620004358162000416565b81146200044157600080fd5b50565b60008151905062000455816200042a565b92915050565b6000806040838503121562000475576200047462000171565b5b600083015167ffffffffffffffff81111562000496576200049562000176565b5b620004a485828601620003c3565b9250506020620004b78582860162000444565b9150509250929050565b7f4e487b7100000000000000000000000000000000000000000000000000000000600052603260045260246000fd5b600081519050919050565b7f4e487b7100000000000000000000000000000000000000000000000000000000600052602260045260246000fd5b600060028204905060018216806200054357607f821691505b602082108103620005595762000558620004fb565b5b50919050565b60008190508160005260206000209050919050565b60006020601f8301049050919050565b600082821b905092915050565b600060088302620005c37fffffffffffffffffffffffffffffffffffffffffffffffffffffffffffffffff8262000584565b620005cf868362000584565b95508019841693508086168417925050509392505050565b6000819050919050565b6000819050919050565b60006200061c620006166200061084620005e7565b620005f1565b620005e7565b9050919050565b6000819050919050565b6200063883620005fb565b62000650620006478262000623565b84845462000591565b825550505050565b600090565b6200066762000658565b620006748184846200062d565b505050565b5b818110156200069c57620006906000826200065d565b6001810190506200067a565b5050565b601f821115620006eb57620006b5816200055f565b620006c08462000574565b81016020851015620006d0578190505b620006e8620006df8562000574565b83018262000679565b50505b505050565b600082821c905092915050565b60006200071060001984600802620006f0565b1980831691505092915050565b60006200072b8383620006fd565b9150826002028217905092915050565b6200074682620004f0565b67ffffffffffffffff81111562000762576200076162000191565b5b6200076e82546200052a565b6200077b828285620006a0565b600060209050601f831160018114620007b357600084156200079e578287015190505b620007aa85826200071d565b8655506200081a565b601f198416620007c3866200055f565b60005b82811015620007ed57848901518255600182019150602085019450602081019050620007c6565b868310156200080d578489015162000809601f891682620006fd565b8355505b6001600288020188555050505b505050505050565b7f4e487b7100000000000000000000000000000000000000000000000000000000600052601160045260246000fd5b60006200085e82620005e7565b91507fffffffffffffffffffffffffffffffffffffffffffffffffffffffffffffffff820362000893576200089262000822565b5b600182019050919050565b61125680620008ae6000396000f3fe608060405234801561001057600080fd5b50600436106100885760003560e01c8063462e91ec1161005b578063462e91ec1461012857806375ccfd9b146101445780638da5cb5b14610162578063a3ec138d1461018057610088565b80630121b93f1461008d57806306a49fce146100a95780632df19e11146100c75780633477ee2e146100f7575b600080fd5b6100a760048036038101906100a291906107ee565b6101b0565b005b6100b1610473565b6040516100be91906109b9565b60405180910390f35b6100e160048036038101906100dc9190610a39565b61056e565b6040516100ee9190610a75565b60405180910390f35b610111600480360381019061010c91906107ee565b610586565b60405161011f929190610ada565b60405180910390f35b610142600480360381019061013d9190610c3f565b610642565b005b61014c610738565b6040516101599190610ce7565b60405180910390f35b61016a61075e565b6040516101779190610d11565b60405180910390f35b61019a60048036038101906101959190610a39565b610784565b6040516101a79190610d47565b60405180910390f35b6000803373ffffffffffffffffffffffffffffffffffffffff1673ffffffffffffffffffffffffffffffffffffffff16815260200190815260200160002060009054906101000a900460ff161561023c576040517f08c379a000000000000000000000000000000000000000000000000000000000815260040161023390610dae565b60405180910390fd5b806002805490508110610284576040517f08c379a000000000000000000000000000000000000000000000000000000000815260040161027b90610e1a565b60405180910390fd5b60016000803373ffffffffffffffffffffffffffffffffffffffff1673ffffffffffffffffffffffffffffffffffffffff16815260200190815260200160002060006101000a81548160ff02191690831515021790555081600160003373ffffffffffffffffffffffffffffffffffffffff1673ffffffffffffffffffffffffffffffffffffffff168152602001908152602001600020819055506002828154811061033357610332610e3a565b5b9060005260206000209060020201600101600081548092919061035590610e98565b9190505550600460009054906101000a900473ffffffffffffffffffffffffffffffffffffffff1673ffffffffffffffffffffffffffffffffffffffff1663bf3955e0836040518263ffffffff1660e01b81526004016103b59190610a75565b600060405180830381600087803b1580156103cf57600080fd5b505af11580156103e3573d6000803e3d6000fd5b50505050813373ffffffffffffffffffffffffffffffffffffffff167fa36cc2bebb74db33e9f88110a07ef56e1b31b24b4c4f51b54b1664266e29f45b60405160405180910390a3813373ffffffffffffffffffffffffffffffffffffffff167f6d518a65f7c3943e8c6cc332cd50c5655dd817e4b01fdf05827f624e48b762bf60405160405180910390a35050565b60606002805480602002602001604051908101604052809291908181526020016000905b8282101561056557838290600052602060002090600202016040518060400160405290816000820180546104ca90610f0f565b80601f01602080910402602001604051908101604052809291908181526020018280546104f690610f0f565b80156105435780601f1061051857610100808354040283529160200191610543565b820191906000526020600020905b81548152906001019060200180831161052657829003601f168201915b5050505050815260200160018201548152505081526020019060010190610497565b50505050905090565b60016020528060005260406000206000915090505481565b6002818154811061059657600080fd5b90600052602060002090600202016000915090508060000180546105b990610f0f565b80601f01602080910402602001604051908101604052809291908181526020018280546105e590610f0f565b80156106325780601f1061060757610100808354040283529160200191610632565b820191906000526020600020905b81548152906001019060200180831161061557829003601f168201915b5050505050908060010154905082565b600360009054906101000a900473ffffffffffffffffffffffffffffffffffffffff1673ffffffffffffffffffffffffffffffffffffffff163373ffffffffffffffffffffffffffffffffffffffff16146106d2576040517f08c379a00000000000000000000000000000000000000000000000000000000081526004016106c990610f8c565b60405180910390fd5b60026040518060400160405280838152602001600081525090806001815401808255809150506001900390600052602060002090600202016000909190919091506000820151816000019081610728919061114e565b5060208201518160010155505050565b600460009054906101000a900473ffffffffffffffffffffffffffffffffffffffff1681565b600360009054906101000a900473ffffffffffffffffffffffffffffffffffffffff1681565b60006020528060005260406000206000915054906101000a900460ff1681565b6000604051905090565b600080fd5b600080fd5b6000819050919050565b6107cb816107b8565b81146107d657600080fd5b50565b6000813590506107e8816107c2565b92915050565b600060208284031215610804576108036107ae565b5b6000610812848285016107d9565b91505092915050565b600081519050919050565b600082825260208201905092915050565b6000819050602082019050919050565b600081519050919050565b600082825260208201905092915050565b60005b83811015610881578082015181840152602081019050610866565b60008484015250505050565b6000601f19601f8301169050919050565b60006108a982610847565b6108b38185610852565b93506108c3818560208601610863565b6108cc8161088d565b840191505092915050565b6108e0816107b8565b82525050565b60006040830160008301518482036000860152610903828261089e565b915050602083015161091860208601826108d7565b508091505092915050565b600061092f83836108e6565b905092915050565b6000602082019050919050565b600061094f8261081b565b6109598185610826565b93508360208202850161096b85610837565b8060005b858110156109a757848403895281516109888582610923565b945061099383610937565b925060208a0199505060018101905061096f565b50829750879550505050505092915050565b600060208201905081810360008301526109d38184610944565b905092915050565b600073ffffffffffffffffffffffffffffffffffffffff82169050919050565b6000610a06826109db565b9050919050565b610a16816109fb565b8114610a2157600080fd5b50565b600081359050610a3381610a0d565b92915050565b600060208284031215610a4f57610a4e6107ae565b5b6000610a5d84828501610a24565b91505092915050565b610a6f816107b8565b82525050565b6000602082019050610a8a6000830184610a66565b92915050565b600082825260208201905092915050565b6000610aac82610847565b610ab68185610a90565b9350610ac6818560208601610863565b610acf8161088d565b840191505092915050565b60006040820190508181036000830152610af48185610aa1565b9050610b036020830184610a66565b9392505050565b600080fd5b600080fd5b7f4e487b7100000000000000000000000000000000000000000000000000000000600052604160045260246000fd5b610b4c8261088d565b810181811067ffffffffffffffff82111715610b6b57610b6a610b14565b5b80604052505050565b6000610b7e6107a4565b9050610b8a8282610b43565b919050565b600067ffffffffffffffff821115610baa57610ba9610b14565b5b610bb38261088d565b9050602081019050919050565b82818337600083830152505050565b6000610be2610bdd84610b8f565b610b74565b905082815260208101848484011115610bfe57610bfd610b0f565b5b610c09848285610bc0565b509392505050565b600082601f830112610c2657610c25610b0a565b5b8135610c36848260208601610bcf565b91505092915050565b600060208284031215610c5557610c546107ae565b5b600082013567ffffffffffffffff811115610c7357610c726107b3565b5b610c7f84828501610c11565b91505092915050565b6000819050919050565b6000610cad610ca8610ca3846109db565b610c88565b6109db565b9050919050565b6000610cbf82610c92565b9050919050565b6000610cd182610cb4565b9050919050565b610ce181610cc6565b82525050565b6000602082019050610cfc6000830184610cd8565b92915050565b610d0b816109fb565b82525050565b6000602082019050610d266000830184610d02565b92915050565b60008115159050919050565b610d4181610d2c565b82525050565b6000602082019050610d5c6000830184610d38565b92915050565b7f596f75206861766520416c726561647920766f74656400000000000000000000600082015250565b6000610d98601683610a90565b9150610da382610d62565b602082019050919050565b60006020820190508181036000830152610dc781610d8b565b9050919050565b7f496e76616c69642063616e64696461746520696e646578000000000000000000600082015250565b6000610e04601783610a90565b9150610e0f82610dce565b602082019050919050565b60006020820190508181036000830152610e3381610df7565b9050919050565b7f4e487b7100000000000000000000000000000000000000000000000000000000600052603260045260246000fd5b7f4e487b7100000000000000000000000000000000000000000000000000000000600052601160045260246000fd5b6000610ea3826107b8565b91507fffffffffffffffffffffffffffffffffffffffffffffffffffffffffffffffff8203610ed557610ed4610e69565b5b600182019050919050565b7f4e487b7100000000000000000000000000000000000000000000000000000000600052602260045260246000fd5b60006002820490506001821680610f2757607f821691505b602082108103610f3a57610f39610ee0565b5b50919050565b7f4e6f7420617574686f72697a6564000000000000000000000000000000000000600082015250565b6000610f76600e83610a90565b9150610f8182610f40565b602082019050919050565b60006020820190508181036000830152610fa581610f69565b9050919050565b60008190508160005260206000209050919050565b60006020601f8301049050919050565b600082821b905092915050565b60006008830261100e7fffffffffffffffffffffffffffffffffffffffffffffffffffffffffffffffff82610fd1565b6110188683610fd1565b95508019841693508086168417925050509392505050565b600061104b611046611041846107b8565b610c88565b6107b8565b9050919050565b6000819050919050565b61106583611030565b61107961107182611052565b848454610fde565b825550505050565b600090565b61108e611081565b61109981848461105c565b505050565b5b818110156110bd576110b2600082611086565b60018101905061109f565b5050565b601f821115611102576110d381610fac565b6110dc84610fc1565b810160208510156110eb578190505b6110ff6110f785610fc1565b83018261109e565b50505b505050565b600082821c905092915050565b600061112560001984600802611107565b1980831691505092915050565b600061113e8383611114565b9150826002028217905092915050565b61115782610847565b67ffffffffffffffff8111156111705761116f610b14565b5b61117a8254610f0f565b6111858282856110c1565b600060209050601f8311600181146111b857600084156111a6578287015190505b6111b08582611132565b865550611218565b601f1984166111c686610fac565b60005b828110156111ee578489015182556001820191506020850194506020810190506111c9565b8683101561120b5784890151611207601f891682611114565b8355505b6001600288020188555050505b50505050505056fea2646970667358221220ae974f897e7d33d21083b9781079b02b1d63f066227cbd951b680f639c4d19c564736f6c63430008120033",
  "linkReferences": {},
  "deployedLinkReferences": {}
}